:020000020000FC
:0200000006C038
:0200060044C0F4
:10000C0033C000E007BB04BB01BB05E009B900E04D
:10001C0000BD08E10AB906E800BD01E00BBD08EE21
:10002C000ABD08E00EBD05E00EBD00E109BF04EFFE
:10003C0003BD0FE005BD09B7006809BF7894FFCF79
:10004C005D9BFECF8CB908958591882311F0F8DF64
:10005C00FBCF089570696E675C725C6E0000706F08
:10006C006E675C725C6E00008F939F93FF93EF93AF
:10007C0080E090E6F82FE92FE7DFEF91FF919F9159
:10008C008F9118958F939F93FF93EF9380E09AE64F
:10009C00F82FE92FD9DFEF91FF919F918F91189550
:00000001FF
